{
  "_format": "hh-sol-artifact-1",
  "contractName": "LidoBridge",
  "sourceName": "contracts/LidoBridge.sol",
  "abi": [
    {
      "inputs": [
        {
          "internalType": "address",
          "name": "_rollupProcessor",
          "type": "address"
        }
      ],
      "stateMutability": "nonpayable",
      "type": "constructor"
    },
    {
      "inputs": [
        {
          "internalType": "uint256",
          "name": "",
          "type": "uint256"
        }
      ],
      "name": "canFinalise",
      "outputs": [
        {
          "internalType": "bool",
          "name": "",
          "type": "bool"
        }
      ],
      "stateMutability": "view",
      "type": "function"
    },
    {
      "inputs": [
        {
          "components": [
            {
              "internalType": "uint256",
              "name": "id",
              "type": "uint256"
            },
            {
              "internalType": "address",
              "name": "erc20Address",
              "type": "address"
            },
            {
              "internalType": "enum Types.AztecAssetType",
              "name": "assetType",
              "type": "uint8"
            }
          ],
          "internalType": "struct Types.AztecAsset",
          "name": "inputAssetA",
          "type": "tuple"
        },
        {
          "components": [
            {
              "internalType": "uint256",
              "name": "id",
              "type": "uint256"
            },
            {
              "internalType": "address",
              "name": "erc20Address",
              "type": "address"
            },
            {
              "internalType": "enum Types.AztecAssetType",
              "name": "assetType",
              "type": "uint8"
            }
          ],
          "internalType": "struct Types.AztecAsset",
          "name": "",
          "type": "tuple"
        },
        {
          "components": [
            {
              "internalType": "uint256",
              "name": "id",
              "type": "uint256"
            },
            {
              "internalType": "address",
              "name": "erc20Address",
              "type": "address"
            },
            {
              "internalType": "enum Types.AztecAssetType",
              "name": "assetType",
              "type": "uint8"
            }
          ],
          "internalType": "struct Types.AztecAsset",
          "name": "outputAssetA",
          "type": "tuple"
        },
        {
          "components": [
            {
              "internalType": "uint256",
              "name": "id",
              "type": "uint256"
            },
            {
              "internalType": "address",
              "name": "erc20Address",
              "type": "address"
            },
            {
              "internalType": "enum Types.AztecAssetType",
              "name": "assetType",
              "type": "uint8"
            }
          ],
          "internalType": "struct Types.AztecAsset",
          "name": "",
          "type": "tuple"
        },
        {
          "internalType": "uint256",
          "name": "inputValue",
          "type": "uint256"
        },
        {
          "internalType": "uint256",
          "name": "",
          "type": "uint256"
        },
        {
          "internalType": "uint64",
          "name": "",
          "type": "uint64"
        }
      ],
      "name": "convert",
      "outputs": [
        {
          "internalType": "uint256",
          "name": "outputValueA",
          "type": "uint256"
        },
        {
          "internalType": "uint256",
          "name": "",
          "type": "uint256"
        },
        {
          "internalType": "bool",
          "name": "isAsync",
          "type": "bool"
        }
      ],
      "stateMutability": "payable",
      "type": "function"
    },
    {
      "inputs": [
        {
          "components": [
            {
              "internalType": "uint256",
              "name": "id",
              "type": "uint256"
            },
            {
              "internalType": "address",
              "name": "erc20Address",
              "type": "address"
            },
            {
              "internalType": "enum Types.AztecAssetType",
              "name": "assetType",
              "type": "uint8"
            }
          ],
          "internalType": "struct Types.AztecAsset",
          "name": "",
          "type": "tuple"
        },
        {
          "components": [
            {
              "internalType": "uint256",
              "name": "id",
              "type": "uint256"
            },
            {
              "internalType": "address",
              "name": "erc20Address",
              "type": "address"
            },
            {
              "internalType": "enum Types.AztecAssetType",
              "name": "assetType",
              "type": "uint8"
            }
          ],
          "internalType": "struct Types.AztecAsset",
          "name": "",
          "type": "tuple"
        },
        {
          "components": [
            {
              "internalType": "uint256",
              "name": "id",
              "type": "uint256"
            },
            {
              "internalType": "address",
              "name": "erc20Address",
              "type": "address"
            },
            {
              "internalType": "enum Types.AztecAssetType",
              "name": "assetType",
              "type": "uint8"
            }
          ],
          "internalType": "struct Types.AztecAsset",
          "name": "",
          "type": "tuple"
        },
        {
          "components": [
            {
              "internalType": "uint256",
              "name": "id",
              "type": "uint256"
            },
            {
              "internalType": "address",
              "name": "erc20Address",
              "type": "address"
            },
            {
              "internalType": "enum Types.AztecAssetType",
              "name": "assetType",
              "type": "uint8"
            }
          ],
          "internalType": "struct Types.AztecAsset",
          "name": "",
          "type": "tuple"
        },
        {
          "internalType": "uint256",
          "name": "",
          "type": "uint256"
        },
        {
          "internalType": "uint64",
          "name": "",
          "type": "uint64"
        }
      ],
      "name": "finalise",
      "outputs": [
        {
          "internalType": "uint256",
          "name": "",
          "type": "uint256"
        },
        {
          "internalType": "uint256",
          "name": "",
          "type": "uint256"
        }
      ],
      "stateMutability": "payable",
      "type": "function"
    },
    {
      "inputs": [],
      "name": "rollupProcessor",
      "outputs": [
        {
          "internalType": "address",
          "name": "",
          "type": "address"
        }
      ],
      "stateMutability": "view",
      "type": "function"
    },
    {
      "stateMutability": "payable",
      "type": "receive"
    }
  ],
  "bytecode": "0x60a0604052600080546001600160a01b031990811673ae7ab96520de3a18e5e111b5eaab095312d7fe84179091556001805461ffff60a01b19908316737f39c581f595b53c5cb19bd0b3f8da6c935e2ca01716600160a81b1790556002805490911673dc24316b9ae028f1497c275eb9192a3ea0f6702217905534801561008557600080fd5b506040516110be3803806110be8339810160408190526100a4916100b9565b60601b6001600160601b0319166080526100e7565b6000602082840312156100ca578081fd5b81516001600160a01b03811681146100e0578182fd5b9392505050565b60805160601c610fa76101176000398060ec528061011d52806103cd528061060052806107ba5250610fa76000f3fe6080604052600436106100435760003560e01c80632a113d6e1461004f5780635254162b1461007a5780637224f4eb1461009c5780639b07d342146100c95761004a565b3661004a57005b600080fd5b34801561005b57600080fd5b506100646100ea565b6040516100719190610caf565b60405180910390f35b61008d610088366004610b4f565b61010e565b60405161007193929190610eec565b3480156100a857600080fd5b506100bc6100b7366004610c63565b61022d565b6040516100719190610cf6565b6100dc6100d7366004610bdf565b610233565b604051610071929190610ede565b7f000000000000000000000000000000000000000000000000000000000000000081565b60008080336001600160a01b037f000000000000000000000000000000000000000000000000000000000000000016146101635760405162461bcd60e51b815260040161015a90610dd7565b60405180910390fd5b6000600161017760608d0160408e01610b30565b600381111561018257fe5b1490506000600261019960608e0160408f01610b30565b60038111156101a457fe5b1480156101d357506001546001600160a01b03166101c860408e0160208f01610ae9565b6001600160a01b0316145b905081806101de5750805b6101fa5760405162461bcd60e51b815260040161015a90610d69565b60009250816102125761020d888b61023b565b61021c565b61021c888b61041e565b945050509750975097945050505050565b50600090565b600080600080fd5b6000600161024f6060840160408501610b30565b600381111561025a57fe5b146102775760405162461bcd60e51b815260040161015a90610d34565b600154604051636f074d1f60e11b81526000916001600160a01b03169063de0e9a3e906102a8908790600401610ed5565b602060405180830381600087803b1580156102c257600080fd5b505af11580156102d6573d6000803e3d6000fd5b505050506040513d601f19601f820116820180604052508101906102fa9190610c7b565b600254600054919250610320916001600160a01b0390811691168363ffffffff6107ee16565b600254600154604051630f7c084960e21b81526001600160a01b0390921691633df021249161036b9160ff600160a81b8304811692600160a01b900416908690600090600401610f22565b602060405180830381600087803b15801561038557600080fd5b505af1158015610399573d6000803e3d6000fd5b505050506040513d601f19601f820116820180604052508101906103bd9190610c7b565b6040519092506001600160a01b037f0000000000000000000000000000000000000000000000000000000000000000169083156108fc029084906000818181858888f19350505050158015610416573d6000803e3d6000fd5b505092915050565b600060026104326060840160408501610b30565b600381111561043d57fe5b14801561046c57506001546001600160a01b03166104616040840160208501610ae9565b6001600160a01b0316145b6104885760405162461bcd60e51b815260040161015a90610d34565b600254600154604051635e0d443f60e01b815285926000926001600160a01b0390911691635e0d443f916104d59160ff600160a01b8304811692600160a81b900416908790600401610f04565b602060405180830381600087803b1580156104ef57600080fd5b505af1158015610503573d6000803e3d6000fd5b505050506040513d601f19601f820116820180604052508101906105279190610c7b565b9050818111156105d657600254600154604051630f7c084960e21b81526001600160a01b0390921691633df0212491889161057e9160ff600160a01b8204811692600160a81b909204169084908990600401610f22565b6020604051808303818588803b15801561059757600080fd5b505af11580156105ab573d6000803e3d6000fd5b50505050506040513d601f19601f820116820180604052508101906105d09190610c7b565b5061067c565b60005460405163a1903eab60e01b81526001600160a01b039091169063a1903eab908790610628907f000000000000000000000000000000000000000000000000000000000000000090600401610caf565b6020604051808303818588803b15801561064157600080fd5b505af1158015610655573d6000803e3d6000fd5b50505050506040513d601f19601f8201168201806040525081019061067a9190610c7b565b505b600080546040516370a0823160e01b81526001600160a01b03909116906370a08231906106ad903090600401610caf565b60206040518083038186803b1580156106c557600080fd5b505afa1580156106d9573d6000803e3d6000fd5b505050506040513d601f19601f820116820180604052508101906106fd9190610c7b565b600154600054919250610723916001600160a01b0390811691168363ffffffff6107ee16565b600154604051630ea598cb60e41b81526001600160a01b039091169063ea598cb090610753908490600401610ed5565b602060405180830381600087803b15801561076d57600080fd5b505af1158015610781573d6000803e3d6000fd5b505050506040513d601f19601f820116820180604052508101906107a59190610c7b565b6001549094506107e5906001600160a01b03167f00000000000000000000000000000000000000000000000000000000000000008663ffffffff6108dc16565b50505092915050565b600061087e82856001600160a01b031663dd62ed3e30876040518363ffffffff1660e01b8152600401610822929190610cc3565b60206040518083038186803b15801561083a57600080fd5b505afa15801561084e573d6000803e3d6000fd5b505050506040513d601f19601f820116820180604052508101906108729190610c7b565b9063ffffffff61090016565b90506108d68463095ea7b360e01b858460405160240161089f929190610cdd565b60408051601f198184030181529190526020810180516001600160e01b03166001600160e01b03199093169290921790915261092c565b50505050565b6108fb8363a9059cbb60e01b848460405160240161089f929190610cdd565b505050565b6000828201838110156109255760405162461bcd60e51b815260040161015a90610da0565b9392505050565b6060610981826040518060400160405280602081526020017f5361666545524332303a206c6f772d6c6576656c2063616c6c206661696c6564815250856001600160a01b03166109bb9092919063ffffffff16565b8051909150156108fb578080602001905181019061099f9190610b10565b6108fb5760405162461bcd60e51b815260040161015a90610e8b565b60606109ca84846000856109d2565b949350505050565b6060824710156109f45760405162461bcd60e51b815260040161015a90610e0e565b6109fd85610a93565b610a195760405162461bcd60e51b815260040161015a90610e54565b60006060866001600160a01b03168587604051610a369190610c93565b60006040518083038185875af1925050503d8060008114610a73576040519150601f19603f3d011682016040523d82523d6000602084013e610a78565b606091505b5091509150610a88828286610a99565b979650505050505050565b3b151590565b60608315610aa8575081610925565b825115610ab85782518084602001fd5b8160405162461bcd60e51b815260040161015a9190610d01565b600060608284031215610ae3578081fd5b50919050565b600060208284031215610afa578081fd5b81356001600160a01b0381168114610925578182fd5b600060208284031215610b21578081fd5b81518015158114610925578182fd5b600060208284031215610b41578081fd5b813560048110610925578182fd5b60008060008060008060006101e0888a031215610b6a578283fd5b610b748989610ad2565b9650610b838960608a01610ad2565b9550610b928960c08a01610ad2565b9450610ba2896101208a01610ad2565b935061018088013592506101a088013591506101c088013567ffffffffffffffff81168114610bcf578182fd5b8091505092959891949750929550565b6000806000806000806101c08789031215610bf8578182fd5b610c028888610ad2565b9550610c118860608901610ad2565b9450610c208860c08901610ad2565b9350610c30886101208901610ad2565b925061018087013591506101a087013567ffffffffffffffff81168114610c55578182fd5b809150509295509295509295565b600060208284031215610c74578081fd5b5035919050565b600060208284031215610c8c578081fd5b5051919050565b60008251610ca5818460208701610f45565b9190910192915050565b6001600160a01b0391909116815260200190565b6001600160a01b0392831681529116602082015260400190565b6001600160a01b03929092168252602082015260400190565b901515815260200190565b6000602082528251806020840152610d20816040850160208701610f45565b601f01601f19169190910160400192915050565b6020808252818101527f4c69646f4272696467653a20496e76616c6964204f757470757420546f6b656e604082015260600190565b60208082526019908201527f4c69646f4272696467653a20496e76616c696420496e70757400000000000000604082015260600190565b6020808252601b908201527f536166654d6174683a206164646974696f6e206f766572666c6f770000000000604082015260600190565b6020808252601a908201527f4c69646f4272696467653a20496e76616c69642043616c6c6572000000000000604082015260600190565b60208082526026908201527f416464726573733a20696e73756666696369656e742062616c616e636520666f6040820152651c8818d85b1b60d21b606082015260800190565b6020808252601d908201527f416464726573733a2063616c6c20746f206e6f6e2d636f6e7472616374000000604082015260600190565b6020808252602a908201527f5361666545524332303a204552433230206f7065726174696f6e20646964206e6040820152691bdd081cdd58d8d9595960b21b606082015260800190565b90815260200190565b918252602082015260400190565b92835260208301919091521515604082015260600190565b60ff9384168152919092166020820152604081019190915260600190565b60ff94851681529290931660208301526040820152606081019190915260800190565b60005b83811015610f60578181015183820152602001610f48565b838111156108d6575050600091015256fea2646970667358221220e4018a84f21eb2c9a9c2d7e66a700abfd2120a6892da625795f8a0e45a819fe164736f6c634300060a0033",
  "linkReferences": {},
  "deployedLinkReferences": {}
}