{
  "_format": "hh-sol-artifact-1",
  "contractName": "LidoBridge",
  "sourceName": "contracts/LidoBridge.sol",
  "abi": [
    {
      "inputs": [
        {
          "internalType": "address",
          "name": "_rollupProcessor",
          "type": "address"
        }
      ],
      "stateMutability": "nonpayable",
      "type": "constructor"
    },
    {
      "inputs": [
        {
          "internalType": "uint256",
          "name": "",
          "type": "uint256"
        }
      ],
      "name": "canFinalise",
      "outputs": [
        {
          "internalType": "bool",
          "name": "",
          "type": "bool"
        }
      ],
      "stateMutability": "view",
      "type": "function"
    },
    {
      "inputs": [
        {
          "components": [
            {
              "internalType": "uint256",
              "name": "id",
              "type": "uint256"
            },
            {
              "internalType": "address",
              "name": "erc20Address",
              "type": "address"
            },
            {
              "internalType": "enum Types.AztecAssetType",
              "name": "assetType",
              "type": "uint8"
            }
          ],
          "internalType": "struct Types.AztecAsset",
          "name": "inputAssetA",
          "type": "tuple"
        },
        {
          "components": [
            {
              "internalType": "uint256",
              "name": "id",
              "type": "uint256"
            },
            {
              "internalType": "address",
              "name": "erc20Address",
              "type": "address"
            },
            {
              "internalType": "enum Types.AztecAssetType",
              "name": "assetType",
              "type": "uint8"
            }
          ],
          "internalType": "struct Types.AztecAsset",
          "name": "",
          "type": "tuple"
        },
        {
          "components": [
            {
              "internalType": "uint256",
              "name": "id",
              "type": "uint256"
            },
            {
              "internalType": "address",
              "name": "erc20Address",
              "type": "address"
            },
            {
              "internalType": "enum Types.AztecAssetType",
              "name": "assetType",
              "type": "uint8"
            }
          ],
          "internalType": "struct Types.AztecAsset",
          "name": "outputAssetA",
          "type": "tuple"
        },
        {
          "components": [
            {
              "internalType": "uint256",
              "name": "id",
              "type": "uint256"
            },
            {
              "internalType": "address",
              "name": "erc20Address",
              "type": "address"
            },
            {
              "internalType": "enum Types.AztecAssetType",
              "name": "assetType",
              "type": "uint8"
            }
          ],
          "internalType": "struct Types.AztecAsset",
          "name": "",
          "type": "tuple"
        },
        {
          "internalType": "uint256",
          "name": "inputValue",
          "type": "uint256"
        },
        {
          "internalType": "uint256",
          "name": "",
          "type": "uint256"
        },
        {
          "internalType": "uint64",
          "name": "",
          "type": "uint64"
        }
      ],
      "name": "convert",
      "outputs": [
        {
          "internalType": "uint256",
          "name": "outputValueA",
          "type": "uint256"
        },
        {
          "internalType": "uint256",
          "name": "",
          "type": "uint256"
        },
        {
          "internalType": "bool",
          "name": "isAsync",
          "type": "bool"
        }
      ],
      "stateMutability": "payable",
      "type": "function"
    },
    {
      "inputs": [
        {
          "components": [
            {
              "internalType": "uint256",
              "name": "id",
              "type": "uint256"
            },
            {
              "internalType": "address",
              "name": "erc20Address",
              "type": "address"
            },
            {
              "internalType": "enum Types.AztecAssetType",
              "name": "assetType",
              "type": "uint8"
            }
          ],
          "internalType": "struct Types.AztecAsset",
          "name": "",
          "type": "tuple"
        },
        {
          "components": [
            {
              "internalType": "uint256",
              "name": "id",
              "type": "uint256"
            },
            {
              "internalType": "address",
              "name": "erc20Address",
              "type": "address"
            },
            {
              "internalType": "enum Types.AztecAssetType",
              "name": "assetType",
              "type": "uint8"
            }
          ],
          "internalType": "struct Types.AztecAsset",
          "name": "",
          "type": "tuple"
        },
        {
          "components": [
            {
              "internalType": "uint256",
              "name": "id",
              "type": "uint256"
            },
            {
              "internalType": "address",
              "name": "erc20Address",
              "type": "address"
            },
            {
              "internalType": "enum Types.AztecAssetType",
              "name": "assetType",
              "type": "uint8"
            }
          ],
          "internalType": "struct Types.AztecAsset",
          "name": "",
          "type": "tuple"
        },
        {
          "components": [
            {
              "internalType": "uint256",
              "name": "id",
              "type": "uint256"
            },
            {
              "internalType": "address",
              "name": "erc20Address",
              "type": "address"
            },
            {
              "internalType": "enum Types.AztecAssetType",
              "name": "assetType",
              "type": "uint8"
            }
          ],
          "internalType": "struct Types.AztecAsset",
          "name": "",
          "type": "tuple"
        },
        {
          "internalType": "uint256",
          "name": "",
          "type": "uint256"
        },
        {
          "internalType": "uint64",
          "name": "",
          "type": "uint64"
        }
      ],
      "name": "finalise",
      "outputs": [
        {
          "internalType": "uint256",
          "name": "",
          "type": "uint256"
        },
        {
          "internalType": "uint256",
          "name": "",
          "type": "uint256"
        }
      ],
      "stateMutability": "payable",
      "type": "function"
    },
    {
      "inputs": [],
      "name": "rollupProcessor",
      "outputs": [
        {
          "internalType": "address",
          "name": "",
          "type": "address"
        }
      ],
      "stateMutability": "view",
      "type": "function"
    },
    {
      "stateMutability": "payable",
      "type": "receive"
    }
  ],
  "bytecode": "0x60a0604052600080546001600160a01b031990811673ae7ab96520de3a18e5e111b5eaab095312d7fe84179091556001805461ffff60a01b19908316737f39c581f595b53c5cb19bd0b3f8da6c935e2ca01716600160a81b1790556002805490911673dc24316b9ae028f1497c275eb9192a3ea0f6702217905534801561008557600080fd5b50604051610e4e380380610e4e8339810160408190526100a4916100b9565b60601b6001600160601b0319166080526100e7565b6000602082840312156100ca578081fd5b81516001600160a01b03811681146100e0578182fd5b9392505050565b60805160601c610d3c6101126000398060ec528061011d5280610380528061053a5250610d3c6000f3fe6080604052600436106100435760003560e01c80632a113d6e1461004f5780635254162b1461007a5780637224f4eb1461009c5780639b07d342146100c95761004a565b3661004a57005b600080fd5b34801561005b57600080fd5b506100646100ea565b6040516100719190610a44565b60405180910390f35b61008d6100883660046108e4565b61010e565b60405161007193929190610c81565b3480156100a857600080fd5b506100bc6100b73660046109f8565b610575565b6040516100719190610a8b565b6100dc6100d7366004610974565b61057b565b604051610071929190610c73565b7f000000000000000000000000000000000000000000000000000000000000000081565b60008080336001600160a01b037f000000000000000000000000000000000000000000000000000000000000000016146101635760405162461bcd60e51b815260040161015a90610c33565b60405180910390fd5b600161017560608c0160408d016108c5565b600381111561018057fe5b1461019d5760405162461bcd60e51b815260040161015a90610bfc565b60026101af60608a0160408b016108c5565b60038111156101ba57fe5b1480156101e957506001546001600160a01b03166101de60408a0160208b0161087e565b6001600160a01b0316145b6102055760405162461bcd60e51b815260040161015a90610ac9565b50600254600154604051635e0d443f60e01b8152600092889284926001600160a01b0390921691635e0d443f916102559160ff600160a01b8304811692600160a81b900416908790600401610c99565b602060405180830381600087803b15801561026f57600080fd5b505af1158015610283573d6000803e3d6000fd5b505050506040513d601f19601f820116820180604052508101906102a79190610a10565b90508181111561035657600254600154604051630f7c084960e21b81526001600160a01b0390921691633df02124918b916102fe9160ff600160a01b8204811692600160a81b909204169084908990600401610cb7565b6020604051808303818588803b15801561031757600080fd5b505af115801561032b573d6000803e3d6000fd5b50505050506040513d601f19601f820116820180604052508101906103509190610a10565b506103fc565b60005460405163a1903eab60e01b81526001600160a01b039091169063a1903eab908a906103a8907f000000000000000000000000000000000000000000000000000000000000000090600401610a44565b6020604051808303818588803b1580156103c157600080fd5b505af11580156103d5573d6000803e3d6000fd5b50505050506040513d601f19601f820116820180604052508101906103fa9190610a10565b505b600080546040516370a0823160e01b81526001600160a01b03909116906370a082319061042d903090600401610a44565b60206040518083038186803b15801561044557600080fd5b505afa158015610459573d6000803e3d6000fd5b505050506040513d601f19601f8201168201806040525081019061047d9190610a10565b6001546000549192506104a3916001600160a01b0390811691168363ffffffff61058316565b600154604051630ea598cb60e41b81526001600160a01b039091169063ea598cb0906104d3908490600401610c6a565b602060405180830381600087803b1580156104ed57600080fd5b505af1158015610501573d6000803e3d6000fd5b505050506040513d601f19601f820116820180604052508101906105259190610a10565b600154909650610565906001600160a01b03167f00000000000000000000000000000000000000000000000000000000000000008863ffffffff61067116565b5050509750975097945050505050565b50600090565b600080600080fd5b600061061382856001600160a01b031663dd62ed3e30876040518363ffffffff1660e01b81526004016105b7929190610a58565b60206040518083038186803b1580156105cf57600080fd5b505afa1580156105e3573d6000803e3d6000fd5b505050506040513d601f19601f820116820180604052508101906106079190610a10565b9063ffffffff61069516565b905061066b8463095ea7b360e01b8584604051602401610634929190610a72565b60408051601f198184030181529190526020810180516001600160e01b03166001600160e01b0319909316929092179091526106c1565b50505050565b6106908363a9059cbb60e01b8484604051602401610634929190610a72565b505050565b6000828201838110156106ba5760405162461bcd60e51b815260040161015a90610afe565b9392505050565b6060610716826040518060400160405280602081526020017f5361666545524332303a206c6f772d6c6576656c2063616c6c206661696c6564815250856001600160a01b03166107509092919063ffffffff16565b805190915015610690578080602001905181019061073491906108a5565b6106905760405162461bcd60e51b815260040161015a90610bb2565b606061075f8484600085610767565b949350505050565b6060824710156107895760405162461bcd60e51b815260040161015a90610b35565b61079285610828565b6107ae5760405162461bcd60e51b815260040161015a90610b7b565b60006060866001600160a01b031685876040516107cb9190610a28565b60006040518083038185875af1925050503d8060008114610808576040519150601f19603f3d011682016040523d82523d6000602084013e61080d565b606091505b509150915061081d82828661082e565b979650505050505050565b3b151590565b6060831561083d5750816106ba565b82511561084d5782518084602001fd5b8160405162461bcd60e51b815260040161015a9190610a96565b600060608284031215610878578081fd5b50919050565b60006020828403121561088f578081fd5b81356001600160a01b03811681146106ba578182fd5b6000602082840312156108b6578081fd5b815180151581146106ba578182fd5b6000602082840312156108d6578081fd5b8135600481106106ba578182fd5b60008060008060008060006101e0888a0312156108ff578283fd5b6109098989610867565b96506109188960608a01610867565b95506109278960c08a01610867565b9450610937896101208a01610867565b935061018088013592506101a088013591506101c088013567ffffffffffffffff81168114610964578182fd5b8091505092959891949750929550565b6000806000806000806101c0878903121561098d578182fd5b6109978888610867565b95506109a68860608901610867565b94506109b58860c08901610867565b93506109c5886101208901610867565b925061018087013591506101a087013567ffffffffffffffff811681146109ea578182fd5b809150509295509295509295565b600060208284031215610a09578081fd5b5035919050565b600060208284031215610a21578081fd5b5051919050565b60008251610a3a818460208701610cda565b9190910192915050565b6001600160a01b0391909116815260200190565b6001600160a01b0392831681529116602082015260400190565b6001600160a01b03929092168252602082015260400190565b901515815260200190565b6000602082528251806020840152610ab5816040850160208701610cda565b601f01601f19169190910160400192915050565b6020808252818101527f4c69646f4272696467653a20496e76616c6964204f757470757420546f6b656e604082015260600190565b6020808252601b908201527f536166654d6174683a206164646974696f6e206f766572666c6f770000000000604082015260600190565b60208082526026908201527f416464726573733a20696e73756666696369656e742062616c616e636520666f6040820152651c8818d85b1b60d21b606082015260800190565b6020808252601d908201527f416464726573733a2063616c6c20746f206e6f6e2d636f6e7472616374000000604082015260600190565b6020808252602a908201527f5361666545524332303a204552433230206f7065726174696f6e20646964206e6040820152691bdd081cdd58d8d9595960b21b606082015260800190565b6020808252601f908201527f4c69646f4272696467653a20496e76616c696420496e70757420546f6b656e00604082015260600190565b6020808252601a908201527f4c69646f4272696467653a20494e56414c49445f43414c4c4552000000000000604082015260600190565b90815260200190565b918252602082015260400190565b92835260208301919091521515604082015260600190565b60ff9384168152919092166020820152604081019190915260600190565b60ff94851681529290931660208301526040820152606081019190915260800190565b60005b83811015610cf5578181015183820152602001610cdd565b8381111561066b575050600091015256fea26469706673582212200d5441f98b8b65b162f928ddf90afa1c7b3a3e3db5a2621028a0b9227c276d2764736f6c634300060a0033",
  "linkReferences": {},
  "deployedLinkReferences": {}
}